{
	"piggybank/piggybank.sol": {
		"PiggyBank": {
			"abi": [
				{
					"inputs": [],
					"stateMutability": "nonpayable",
					"type": "constructor"
				},
				{
					"anonymous": false,
					"inputs": [
						{
							"indexed": true,
							"internalType": "address",
							"name": "user",
							"type": "address"
						},
						{
							"indexed": true,
							"internalType": "address",
							"name": "token",
							"type": "address"
						},
						{
							"indexed": false,
							"internalType": "uint256",
							"name": "amount",
							"type": "uint256"
						}
					],
					"name": "Deposit",
					"type": "event"
				},
				{
					"anonymous": false,
					"inputs": [
						{
							"indexed": true,
							"internalType": "address",
							"name": "user",
							"type": "address"
						},
						{
							"indexed": true,
							"internalType": "address",
							"name": "token",
							"type": "address"
						},
						{
							"indexed": false,
							"internalType": "uint256",
							"name": "amount",
							"type": "uint256"
						}
					],
					"name": "Withdrawal",
					"type": "event"
				},
				{
					"inputs": [
						{
							"internalType": "address",
							"name": "token",
							"type": "address"
						},
						{
							"internalType": "uint256",
							"name": "amount",
							"type": "uint256"
						}
					],
					"name": "deposit",
					"outputs": [],
					"stateMutability": "nonpayable",
					"type": "function"
				},
				{
					"inputs": [
						{
							"internalType": "address",
							"name": "user",
							"type": "address"
						},
						{
							"internalType": "address",
							"name": "token",
							"type": "address"
						}
					],
					"name": "getBalance",
					"outputs": [
						{
							"internalType": "uint256",
							"name": "",
							"type": "uint256"
						}
					],
					"stateMutability": "view",
					"type": "function"
				},
				{
					"inputs": [
						{
							"internalType": "address",
							"name": "token",
							"type": "address"
						},
						{
							"internalType": "uint256",
							"name": "amount",
							"type": "uint256"
						}
					],
					"name": "withdraw",
					"outputs": [],
					"stateMutability": "nonpayable",
					"type": "function"
				}
			],
			"devdoc": {
				"kind": "dev",
				"methods": {},
				"version": 1
			},
			"evm": {
				"assembly": "    /* \"piggybank/piggybank.sol\":272:1491  contract PiggyBank {... */\n  mstore(0x40, 0x80)\n    /* \"piggybank/piggybank.sol\":539:555  constructor() {} */\n  callvalue\n  dup1\n  iszero\n  tag_1\n  jumpi\n  0x00\n  dup1\n  revert\ntag_1:\n  pop\n    /* \"piggybank/piggybank.sol\":272:1491  contract PiggyBank {... */\n  dataSize(sub_0)\n  dup1\n  dataOffset(sub_0)\n  0x00\n  codecopy\n  0x00\n  return\nstop\n\nsub_0: assembly {\n        /* \"piggybank/piggybank.sol\":272:1491  contract PiggyBank {... */\n      mstore(0x40, 0x80)\n      callvalue\n      dup1\n      iszero\n      tag_1\n      jumpi\n      0x00\n      dup1\n      revert\n    tag_1:\n      pop\n      jumpi(tag_2, lt(calldatasize, 0x04))\n      shr(0xe0, calldataload(0x00))\n      dup1\n      0x47e7ef24\n      eq\n      tag_3\n      jumpi\n      dup1\n      0xd4fac45d\n      eq\n      tag_4\n      jumpi\n      dup1\n      0xf3fef3a3\n      eq\n      tag_5\n      jumpi\n    tag_2:\n      0x00\n      dup1\n      revert\n        /* \"piggybank/piggybank.sol\":563:918  function deposit(address token, uint256 amount) external {... */\n    tag_3:\n      tag_6\n      0x04\n      dup1\n      calldatasize\n      sub\n      dup2\n      add\n      swap1\n      tag_7\n      swap2\n      swap1\n      tag_8\n      jump\t// in\n    tag_7:\n      tag_9\n      jump\t// in\n    tag_6:\n      stop\n        /* \"piggybank/piggybank.sol\":1359:1488  function getBalance(address user, address token) external view returns (uint256) {... */\n    tag_4:\n      tag_10\n      0x04\n      dup1\n      calldatasize\n      sub\n      dup2\n      add\n      swap1\n      tag_11\n      swap2\n      swap1\n      tag_12\n      jump\t// in\n    tag_11:\n      tag_13\n      jump\t// in\n    tag_10:\n      mload(0x40)\n      tag_14\n      swap2\n      swap1\n      tag_15\n      jump\t// in\n    tag_14:\n      mload(0x40)\n      dup1\n      swap2\n      sub\n      swap1\n      return\n        /* \"piggybank/piggybank.sol\":926:1351  function withdraw(address token, uint256 amount) external {... */\n    tag_5:\n      tag_16\n      0x04\n      dup1\n      calldatasize\n      sub\n      dup2\n      add\n      swap1\n      tag_17\n      swap2\n      swap1\n      tag_8\n      jump\t// in\n    tag_17:\n      tag_18\n      jump\t// in\n    tag_16:\n      stop\n        /* \"piggybank/piggybank.sol\":563:918  function deposit(address token, uint256 amount) external {... */\n    tag_9:\n        /* \"piggybank/piggybank.sol\":648:649  0 */\n      0x00\n        /* \"piggybank/piggybank.sol\":639:645  amount */\n      dup2\n        /* \"piggybank/piggybank.sol\":639:649  amount > 0 */\n      gt\n        /* \"piggybank/piggybank.sol\":631:691  require(amount > 0, \"Deposit amount must be greater than 0\") */\n      tag_20\n      jumpi\n      mload(0x40)\n      0x08c379a000000000000000000000000000000000000000000000000000000000\n      dup2\n      mstore\n      0x04\n      add\n      tag_21\n      swap1\n      tag_22\n      jump\t// in\n    tag_21:\n      mload(0x40)\n      dup1\n      swap2\n      sub\n      swap1\n      revert\n    tag_20:\n        /* \"piggybank/piggybank.sol\":717:722  token */\n      dup2\n        /* \"piggybank/piggybank.sol\":710:736  IERC20(token).transferFrom */\n      0xffffffffffffffffffffffffffffffffffffffff\n      and\n      0x23b872dd\n        /* \"piggybank/piggybank.sol\":737:747  msg.sender */\n      caller\n        /* \"piggybank/piggybank.sol\":757:761  this */\n      address\n        /* \"piggybank/piggybank.sol\":764:770  amount */\n      dup5\n        /* \"piggybank/piggybank.sol\":710:771  IERC20(token).transferFrom(msg.sender, address(this), amount) */\n      mload(0x40)\n      dup5\n      0xffffffff\n      and\n      0xe0\n      shl\n      dup2\n      mstore\n      0x04\n      add\n      tag_23\n      swap4\n      swap3\n      swap2\n      swap1\n      tag_24\n      jump\t// in\n    tag_23:\n      0x20\n      mload(0x40)\n      dup1\n      dup4\n      sub\n      dup2\n      0x00\n      dup8\n      gas\n      call\n      iszero\n      dup1\n      iszero\n      tag_26\n      jumpi\n      returndatasize\n      0x00\n      dup1\n      returndatacopy\n      revert(0x00, returndatasize)\n    tag_26:\n      pop\n      pop\n      pop\n      pop\n      mload(0x40)\n      returndatasize\n      not(0x1f)\n      0x1f\n      dup3\n      add\n      and\n      dup3\n      add\n      dup1\n      0x40\n      mstore\n      pop\n      dup2\n      add\n      swap1\n      tag_27\n      swap2\n      swap1\n      tag_28\n      jump\t// in\n    tag_27:\n        /* \"piggybank/piggybank.sol\":702:791  require(IERC20(token).transferFrom(msg.sender, address(this), amount), \"Transfer failed\") */\n      tag_29\n      jumpi\n      mload(0x40)\n      0x08c379a000000000000000000000000000000000000000000000000000000000\n      dup2\n      mstore\n      0x04\n      add\n      tag_30\n      swap1\n      tag_31\n      jump\t// in\n    tag_30:\n      mload(0x40)\n      dup1\n      swap2\n      sub\n      swap1\n      revert\n    tag_29:\n        /* \"piggybank/piggybank.sol\":844:850  amount */\n      dup1\n        /* \"piggybank/piggybank.sol\":812:821  _balances */\n      0x00\n        /* \"piggybank/piggybank.sol\":812:833  _balances[msg.sender] */\n      dup1\n        /* \"piggybank/piggybank.sol\":822:832  msg.sender */\n      caller\n        /* \"piggybank/piggybank.sol\":812:833  _balances[msg.sender] */\n      0xffffffffffffffffffffffffffffffffffffffff\n      and\n      0xffffffffffffffffffffffffffffffffffffffff\n      and\n      dup2\n      mstore\n      0x20\n      add\n      swap1\n      dup2\n      mstore\n      0x20\n      add\n      0x00\n      keccak256\n        /* \"piggybank/piggybank.sol\":812:840  _balances[msg.sender][token] */\n      0x00\n        /* \"piggybank/piggybank.sol\":834:839  token */\n      dup5\n        /* \"piggybank/piggybank.sol\":812:840  _balances[msg.sender][token] */\n      0xffffffffffffffffffffffffffffffffffffffff\n      and\n      0xffffffffffffffffffffffffffffffffffffffff\n      and\n      dup2\n      mstore\n      0x20\n      add\n      swap1\n      dup2\n      mstore\n      0x20\n      add\n      0x00\n      keccak256\n      0x00\n        /* \"piggybank/piggybank.sol\":812:850  _balances[msg.sender][token] += amount */\n      dup3\n      dup3\n      sload\n      tag_32\n      swap2\n      swap1\n      tag_33\n      jump\t// in\n    tag_32:\n      swap3\n      pop\n      pop\n      dup2\n      swap1\n      sstore\n      pop\n        /* \"piggybank/piggybank.sol\":896:901  token */\n      dup2\n        /* \"piggybank/piggybank.sol\":876:910  Deposit(msg.sender, token, amount) */\n      0xffffffffffffffffffffffffffffffffffffffff\n      and\n        /* \"piggybank/piggybank.sol\":884:894  msg.sender */\n      caller\n        /* \"piggybank/piggybank.sol\":876:910  Deposit(msg.sender, token, amount) */\n      0xffffffffffffffffffffffffffffffffffffffff\n      and\n      0x5548c837ab068cf56a2c2479df0882a4922fd203edb7517321831d95078c5f62\n        /* \"piggybank/piggybank.sol\":903:909  amount */\n      dup4\n        /* \"piggybank/piggybank.sol\":876:910  Deposit(msg.sender, token, amount) */\n      mload(0x40)\n      tag_34\n      swap2\n      swap1\n      tag_15\n      jump\t// in\n    tag_34:\n      mload(0x40)\n      dup1\n      swap2\n      sub\n      swap1\n      log3\n        /* \"piggybank/piggybank.sol\":563:918  function deposit(address token, uint256 amount) external {... */\n      pop\n      pop\n      jump\t// out\n        /* \"piggybank/piggybank.sol\":1359:1488  function getBalance(address user, address token) external view returns (uint256) {... */\n    tag_13:\n        /* \"piggybank/piggybank.sol\":1431:1438  uint256 */\n      0x00\n        /* \"piggybank/piggybank.sol\":1458:1467  _balances */\n      dup1\n        /* \"piggybank/piggybank.sol\":1458:1473  _balances[user] */\n      0x00\n        /* \"piggybank/piggybank.sol\":1468:1472  user */\n      dup5\n        /* \"piggybank/piggybank.sol\":1458:1473  _balances[user] */\n      0xffffffffffffffffffffffffffffffffffffffff\n      and\n      0xffffffffffffffffffffffffffffffffffffffff\n      and\n      dup2\n      mstore\n      0x20\n      add\n      swap1\n      dup2\n      mstore\n      0x20\n      add\n      0x00\n      keccak256\n        /* \"piggybank/piggybank.sol\":1458:1480  _balances[user][token] */\n      0x00\n        /* \"piggybank/piggybank.sol\":1474:1479  token */\n      dup4\n        /* \"piggybank/piggybank.sol\":1458:1480  _balances[user][token] */\n      0xffffffffffffffffffffffffffffffffffffffff\n      and\n      0xffffffffffffffffffffffffffffffffffffffff\n      and\n      dup2\n      mstore\n      0x20\n      add\n      swap1\n      dup2\n      mstore\n      0x20\n      add\n      0x00\n      keccak256\n      sload\n        /* \"piggybank/piggybank.sol\":1451:1480  return _balances[user][token] */\n      swap1\n      pop\n        /* \"piggybank/piggybank.sol\":1359:1488  function getBalance(address user, address token) external view returns (uint256) {... */\n      swap3\n      swap2\n      pop\n      pop\n      jump\t// out\n        /* \"piggybank/piggybank.sol\":926:1351  function withdraw(address token, uint256 amount) external {... */\n    tag_18:\n        /* \"piggybank/piggybank.sol\":1012:1013  0 */\n      0x00\n        /* \"piggybank/piggybank.sol\":1003:1009  amount */\n      dup2\n        /* \"piggybank/piggybank.sol\":1003:1013  amount > 0 */\n      gt\n        /* \"piggybank/piggybank.sol\":995:1058  require(amount > 0, \"Withdrawal amount must be greater than 0\") */\n      tag_37\n      jumpi\n      mload(0x40)\n      0x08c379a000000000000000000000000000000000000000000000000000000000\n      dup2\n      mstore\n      0x04\n      add\n      tag_38\n      swap1\n      tag_39\n      jump\t// in\n    tag_38:\n      mload(0x40)\n      dup1\n      swap2\n      sub\n      swap1\n      revert\n    tag_37:\n        /* \"piggybank/piggybank.sol\":1109:1115  amount */\n      dup1\n        /* \"piggybank/piggybank.sol\":1077:1086  _balances */\n      0x00\n        /* \"piggybank/piggybank.sol\":1077:1098  _balances[msg.sender] */\n      dup1\n        /* \"piggybank/piggybank.sol\":1087:1097  msg.sender */\n      caller\n        /* \"piggybank/piggybank.sol\":1077:1098  _balances[msg.sender] */\n      0xffffffffffffffffffffffffffffffffffffffff\n      and\n      0xffffffffffffffffffffffffffffffffffffffff\n      and\n      dup2\n      mstore\n      0x20\n      add\n      swap1\n      dup2\n      mstore\n      0x20\n      add\n      0x00\n      keccak256\n        /* \"piggybank/piggybank.sol\":1077:1105  _balances[msg.sender][token] */\n      0x00\n        /* \"piggybank/piggybank.sol\":1099:1104  token */\n      dup5\n        /* \"piggybank/piggybank.sol\":1077:1105  _balances[msg.sender][token] */\n      0xffffffffffffffffffffffffffffffffffffffff\n      and\n      0xffffffffffffffffffffffffffffffffffffffff\n      and\n      dup2\n      mstore\n      0x20\n      add\n      swap1\n      dup2\n      mstore\n      0x20\n      add\n      0x00\n      keccak256\n      sload\n        /* \"piggybank/piggybank.sol\":1077:1115  _balances[msg.sender][token] >= amount */\n      lt\n      iszero\n        /* \"piggybank/piggybank.sol\":1069:1140  require(_balances[msg.sender][token] >= amount, \"Insufficient balance\") */\n      tag_40\n      jumpi\n      mload(0x40)\n      0x08c379a000000000000000000000000000000000000000000000000000000000\n      dup2\n      mstore\n      0x04\n      add\n      tag_41\n      swap1\n      tag_42\n      jump\t// in\n    tag_41:\n      mload(0x40)\n      dup1\n      swap2\n      sub\n      swap1\n      revert\n    tag_40:\n        /* \"piggybank/piggybank.sol\":1193:1199  amount */\n      dup1\n        /* \"piggybank/piggybank.sol\":1161:1170  _balances */\n      0x00\n        /* \"piggybank/piggybank.sol\":1161:1182  _balances[msg.sender] */\n      dup1\n        /* \"piggybank/piggybank.sol\":1171:1181  msg.sender */\n      caller\n        /* \"piggybank/piggybank.sol\":1161:1182  _balances[msg.sender] */\n      0xffffffffffffffffffffffffffffffffffffffff\n      and\n      0xffffffffffffffffffffffffffffffffffffffff\n      and\n      dup2\n      mstore\n      0x20\n      add\n      swap1\n      dup2\n      mstore\n      0x20\n      add\n      0x00\n      keccak256\n        /* \"piggybank/piggybank.sol\":1161:1189  _balances[msg.sender][token] */\n      0x00\n        /* \"piggybank/piggybank.sol\":1183:1188  token */\n      dup5\n        /* \"piggybank/piggybank.sol\":1161:1189  _balances[msg.sender][token] */\n      0xffffffffffffffffffffffffffffffffffffffff\n      and\n      0xffffffffffffffffffffffffffffffffffffffff\n      and\n      dup2\n      mstore\n      0x20\n      add\n      swap1\n      dup2\n      mstore\n      0x20\n      add\n      0x00\n      keccak256\n      0x00\n        /* \"piggybank/piggybank.sol\":1161:1199  _balances[msg.sender][token] -= amount */\n      dup3\n      dup3\n      sload\n      tag_43\n      swap2\n      swap1\n      tag_44\n      jump\t// in\n    tag_43:\n      swap3\n      pop\n      pop\n      dup2\n      swap1\n      sstore\n      pop\n        /* \"piggybank/piggybank.sol\":1225:1230  token */\n      dup2\n        /* \"piggybank/piggybank.sol\":1218:1240  IERC20(token).transfer */\n      0xffffffffffffffffffffffffffffffffffffffff\n      and\n      0xa9059cbb\n        /* \"piggybank/piggybank.sol\":1241:1251  msg.sender */\n      caller\n        /* \"piggybank/piggybank.sol\":1253:1259  amount */\n      dup4\n        /* \"piggybank/piggybank.sol\":1218:1260  IERC20(token).transfer(msg.sender, amount) */\n      mload(0x40)\n      dup4\n      0xffffffff\n      and\n      0xe0\n      shl\n      dup2\n      mstore\n      0x04\n      add\n      tag_45\n      swap3\n      swap2\n      swap1\n      tag_46\n      jump\t// in\n    tag_45:\n      0x20\n      mload(0x40)\n      dup1\n      dup4\n      sub\n      dup2\n      0x00\n      dup8\n      gas\n      call\n      iszero\n      dup1\n      iszero\n      tag_48\n      jumpi\n      returndatasize\n      0x00\n      dup1\n      returndatacopy\n      revert(0x00, returndatasize)\n    tag_48:\n      pop\n      pop\n      pop\n      pop\n      mload(0x40)\n      returndatasize\n      not(0x1f)\n      0x1f\n      dup3\n      add\n      and\n      dup3\n      add\n      dup1\n      0x40\n      mstore\n      pop\n      dup2\n      add\n      swap1\n      tag_49\n      swap2\n      swap1\n      tag_28\n      jump\t// in\n    tag_49:\n        /* \"piggybank/piggybank.sol\":1210:1280  require(IERC20(token).transfer(msg.sender, amount), \"Transfer failed\") */\n      tag_50\n      jumpi\n      mload(0x40)\n      0x08c379a000000000000000000000000000000000000000000000000000000000\n      dup2\n      mstore\n      0x04\n      add\n      tag_51\n      swap1\n      tag_31\n      jump\t// in\n    tag_51:\n      mload(0x40)\n      dup1\n      swap2\n      sub\n      swap1\n      revert\n    tag_50:\n        /* \"piggybank/piggybank.sol\":1329:1334  token */\n      dup2\n        /* \"piggybank/piggybank.sol\":1306:1343  Withdrawal(msg.sender, token, amount) */\n      0xffffffffffffffffffffffffffffffffffffffff\n      and\n        /* \"piggybank/piggybank.sol\":1317:1327  msg.sender */\n      caller\n        /* \"piggybank/piggybank.sol\":1306:1343  Withdrawal(msg.sender, token, amount) */\n      0xffffffffffffffffffffffffffffffffffffffff\n      and\n      0x2717ead6b9200dd235aad468c9809ea400fe33ac69b5bfaa6d3e90fc922b6398\n        /* \"piggybank/piggybank.sol\":1336:1342  amount */\n      dup4\n        /* \"piggybank/piggybank.sol\":1306:1343  Withdrawal(msg.sender, token, amount) */\n      mload(0x40)\n      tag_52\n      swap2\n      swap1\n      tag_15\n      jump\t// in\n    tag_52:\n      mload(0x40)\n      dup1\n      swap2\n      sub\n      swap1\n      log3\n        /* \"piggybank/piggybank.sol\":926:1351  function withdraw(address token, uint256 amount) external {... */\n      pop\n      pop\n      jump\t// out\n        /* \"#utility.yul\":88:205   */\n    tag_54:\n        /* \"#utility.yul\":197:198   */\n      0x00\n        /* \"#utility.yul\":194:195   */\n      dup1\n        /* \"#utility.yul\":187:199   */\n      revert\n        /* \"#utility.yul\":334:460   */\n    tag_56:\n        /* \"#utility.yul\":371:378   */\n      0x00\n        /* \"#utility.yul\":411:453   */\n      0xffffffffffffffffffffffffffffffffffffffff\n        /* \"#utility.yul\":404:409   */\n      dup3\n        /* \"#utility.yul\":400:454   */\n      and\n        /* \"#utility.yul\":389:454   */\n      swap1\n      pop\n        /* \"#utility.yul\":334:460   */\n      swap2\n      swap1\n      pop\n      jump\t// out\n        /* \"#utility.yul\":466:562   */\n    tag_57:\n        /* \"#utility.yul\":503:510   */\n      0x00\n        /* \"#utility.yul\":532:556   */\n      tag_84\n        /* \"#utility.yul\":550:555   */\n      dup3\n        /* \"#utility.yul\":532:556   */\n      tag_56\n      jump\t// in\n    tag_84:\n        /* \"#utility.yul\":521:556   */\n      swap1\n      pop\n        /* \"#utility.yul\":466:562   */\n      swap2\n      swap1\n      pop\n      jump\t// out\n        /* \"#utility.yul\":568:690   */\n    tag_58:\n        /* \"#utility.yul\":641:665   */\n      tag_86\n        /* \"#utility.yul\":659:664   */\n      dup2\n        /* \"#utility.yul\":641:665   */\n      tag_57\n      jump\t// in\n    tag_86:\n        /* \"#utility.yul\":634:639   */\n      dup2\n        /* \"#utility.yul\":631:666   */\n      eq\n        /* \"#utility.yul\":621:684   */\n      tag_87\n      jumpi\n        /* \"#utility.yul\":680:681   */\n      0x00\n        /* \"#utility.yul\":677:678   */\n      dup1\n        /* \"#utility.yul\":670:682   */\n      revert\n        /* \"#utility.yul\":621:684   */\n    tag_87:\n        /* \"#utility.yul\":568:690   */\n      pop\n      jump\t// out\n        /* \"#utility.yul\":696:835   */\n    tag_59:\n        /* \"#utility.yul\":742:747   */\n      0x00\n        /* \"#utility.yul\":780:786   */\n      dup2\n        /* \"#utility.yul\":767:787   */\n      calldataload\n        /* \"#utility.yul\":758:787   */\n      swap1\n      pop\n        /* \"#utility.yul\":796:829   */\n      tag_89\n        /* \"#utility.yul\":823:828   */\n      dup2\n        /* \"#utility.yul\":796:829   */\n      tag_58\n      jump\t// in\n    tag_89:\n        /* \"#utility.yul\":696:835   */\n      swap3\n      swap2\n      pop\n      pop\n      jump\t// out\n        /* \"#utility.yul\":841:918   */\n    tag_60:\n        /* \"#utility.yul\":878:885   */\n      0x00\n        /* \"#utility.yul\":907:912   */\n      dup2\n        /* \"#utility.yul\":896:912   */\n      swap1\n      pop\n        /* \"#utility.yul\":841:918   */\n      swap2\n      swap1\n      pop\n      jump\t// out\n        /* \"#utility.yul\":924:1046   */\n    tag_61:\n        /* \"#utility.yul\":997:1021   */\n      tag_92\n        /* \"#utility.yul\":1015:1020   */\n      dup2\n        /* \"#utility.yul\":997:1021   */\n      tag_60\n      jump\t// in\n    tag_92:\n        /* \"#utility.yul\":990:995   */\n      dup2\n        /* \"#utility.yul\":987:1022   */\n      eq\n        /* \"#utility.yul\":977:1040   */\n      tag_93\n      jumpi\n        /* \"#utility.yul\":1036:1037   */\n      0x00\n        /* \"#utility.yul\":1033:1034   */\n      dup1\n        /* \"#utility.yul\":1026:1038   */\n      revert\n        /* \"#utility.yul\":977:1040   */\n    tag_93:\n        /* \"#utility.yul\":924:1046   */\n      pop\n      jump\t// out\n        /* \"#utility.yul\":1052:1191   */\n    tag_62:\n        /* \"#utility.yul\":1098:1103   */\n      0x00\n        /* \"#utility.yul\":1136:1142   */\n      dup2\n        /* \"#utility.yul\":1123:1143   */\n      calldataload\n        /* \"#utility.yul\":1114:1143   */\n      swap1\n      pop\n        /* \"#utility.yul\":1152:1185   */\n      tag_95\n        /* \"#utility.yul\":1179:1184   */\n      dup2\n        /* \"#utility.yul\":1152:1185   */\n      tag_61\n      jump\t// in\n    tag_95:\n        /* \"#utility.yul\":1052:1191   */\n      swap3\n      swap2\n      pop\n      pop\n      jump\t// out\n        /* \"#utility.yul\":1197:1671   */\n    tag_8:\n        /* \"#utility.yul\":1265:1271   */\n      0x00\n        /* \"#utility.yul\":1273:1279   */\n      dup1\n        /* \"#utility.yul\":1322:1324   */\n      0x40\n        /* \"#utility.yul\":1310:1319   */\n      dup4\n        /* \"#utility.yul\":1301:1308   */\n      dup6\n        /* \"#utility.yul\":1297:1320   */\n      sub\n        /* \"#utility.yul\":1293:1325   */\n      slt\n        /* \"#utility.yul\":1290:1409   */\n      iszero\n      tag_97\n      jumpi\n        /* \"#utility.yul\":1328:1407   */\n      tag_98\n      tag_54\n      jump\t// in\n    tag_98:\n        /* \"#utility.yul\":1290:1409   */\n    tag_97:\n        /* \"#utility.yul\":1448:1449   */\n      0x00\n        /* \"#utility.yul\":1473:1526   */\n      tag_99\n        /* \"#utility.yul\":1518:1525   */\n      dup6\n        /* \"#utility.yul\":1509:1515   */\n      dup3\n        /* \"#utility.yul\":1498:1507   */\n      dup7\n        /* \"#utility.yul\":1494:1516   */\n      add\n        /* \"#utility.yul\":1473:1526   */\n      tag_59\n      jump\t// in\n    tag_99:\n        /* \"#utility.yul\":1463:1526   */\n      swap3\n      pop\n        /* \"#utility.yul\":1419:1536   */\n      pop\n        /* \"#utility.yul\":1575:1577   */\n      0x20\n        /* \"#utility.yul\":1601:1654   */\n      tag_100\n        /* \"#utility.yul\":1646:1653   */\n      dup6\n        /* \"#utility.yul\":1637:1643   */\n      dup3\n        /* \"#utility.yul\":1626:1635   */\n      dup7\n        /* \"#utility.yul\":1622:1644   */\n      add\n        /* \"#utility.yul\":1601:1654   */\n      tag_62\n      jump\t// in\n    tag_100:\n        /* \"#utility.yul\":1591:1654   */\n      swap2\n      pop\n        /* \"#utility.yul\":1546:1664   */\n      pop\n        /* \"#utility.yul\":1197:1671   */\n      swap3\n      pop\n      swap3\n      swap1\n      pop\n      jump\t// out\n        /* \"#utility.yul\":1677:2151   */\n    tag_12:\n        /* \"#utility.yul\":1745:1751   */\n      0x00\n        /* \"#utility.yul\":1753:1759   */\n      dup1\n        /* \"#utility.yul\":1802:1804   */\n      0x40\n        /* \"#utility.yul\":1790:1799   */\n      dup4\n        /* \"#utility.yul\":1781:1788   */\n      dup6\n        /* \"#utility.yul\":1777:1800   */\n      sub\n        /* \"#utility.yul\":1773:1805   */\n      slt\n        /* \"#utility.yul\":1770:1889   */\n      iszero\n      tag_102\n      jumpi\n        /* \"#utility.yul\":1808:1887   */\n      tag_103\n      tag_54\n      jump\t// in\n    tag_103:\n        /* \"#utility.yul\":1770:1889   */\n    tag_102:\n        /* \"#utility.yul\":1928:1929   */\n      0x00\n        /* \"#utility.yul\":1953:2006   */\n      tag_104\n        /* \"#utility.yul\":1998:2005   */\n      dup6\n        /* \"#utility.yul\":1989:1995   */\n      dup3\n        /* \"#utility.yul\":1978:1987   */\n      dup7\n        /* \"#utility.yul\":1974:1996   */\n      add\n        /* \"#utility.yul\":1953:2006   */\n      tag_59\n      jump\t// in\n    tag_104:\n        /* \"#utility.yul\":1943:2006   */\n      swap3\n      pop\n        /* \"#utility.yul\":1899:2016   */\n      pop\n        /* \"#utility.yul\":2055:2057   */\n      0x20\n        /* \"#utility.yul\":2081:2134   */\n      tag_105\n        /* \"#utility.yul\":2126:2133   */\n      dup6\n        /* \"#utility.yul\":2117:2123   */\n      dup3\n        /* \"#utility.yul\":2106:2115   */\n      dup7\n        /* \"#utility.yul\":2102:2124   */\n      add\n        /* \"#utility.yul\":2081:2134   */\n      tag_59\n      jump\t// in\n    tag_105:\n        /* \"#utility.yul\":2071:2134   */\n      swap2\n      pop\n        /* \"#utility.yul\":2026:2144   */\n      pop\n        /* \"#utility.yul\":1677:2151   */\n      swap3\n      pop\n      swap3\n      swap1\n      pop\n      jump\t// out\n        /* \"#utility.yul\":2157:2275   */\n    tag_63:\n        /* \"#utility.yul\":2244:2268   */\n      tag_107\n        /* \"#utility.yul\":2262:2267   */\n      dup2\n        /* \"#utility.yul\":2244:2268   */\n      tag_60\n      jump\t// in\n    tag_107:\n        /* \"#utility.yul\":2239:2242   */\n      dup3\n        /* \"#utility.yul\":2232:2269   */\n      mstore\n        /* \"#utility.yul\":2157:2275   */\n      pop\n      pop\n      jump\t// out\n        /* \"#utility.yul\":2281:2503   */\n    tag_15:\n        /* \"#utility.yul\":2374:2378   */\n      0x00\n        /* \"#utility.yul\":2412:2414   */\n      0x20\n        /* \"#utility.yul\":2401:2410   */\n      dup3\n        /* \"#utility.yul\":2397:2415   */\n      add\n        /* \"#utility.yul\":2389:2415   */\n      swap1\n      pop\n        /* \"#utility.yul\":2425:2496   */\n      tag_109\n        /* \"#utility.yul\":2493:2494   */\n      0x00\n        /* \"#utility.yul\":2482:2491   */\n      dup4\n        /* \"#utility.yul\":2478:2495   */\n      add\n        /* \"#utility.yul\":2469:2475   */\n      dup5\n        /* \"#utility.yul\":2425:2496   */\n      tag_63\n      jump\t// in\n    tag_109:\n        /* \"#utility.yul\":2281:2503   */\n      swap3\n      swap2\n      pop\n      pop\n      jump\t// out\n        /* \"#utility.yul\":2509:2678   */\n    tag_64:\n        /* \"#utility.yul\":2593:2604   */\n      0x00\n        /* \"#utility.yul\":2627:2633   */\n      dup3\n        /* \"#utility.yul\":2622:2625   */\n      dup3\n        /* \"#utility.yul\":2615:2634   */\n      mstore\n        /* \"#utility.yul\":2667:2671   */\n      0x20\n        /* \"#utility.yul\":2662:2665   */\n      dup3\n        /* \"#utility.yul\":2658:2672   */\n      add\n        /* \"#utility.yul\":2643:2672   */\n      swap1\n      pop\n        /* \"#utility.yul\":2509:2678   */\n      swap3\n      swap2\n      pop\n      pop\n      jump\t// out\n        /* \"#utility.yul\":2684:2908   */\n    tag_65:\n        /* \"#utility.yul\":2824:2858   */\n      0x4465706f73697420616d6f756e74206d75737420626520677265617465722074\n        /* \"#utility.yul\":2820:2821   */\n      0x00\n        /* \"#utility.yul\":2812:2818   */\n      dup3\n        /* \"#utility.yul\":2808:2822   */\n      add\n        /* \"#utility.yul\":2801:2859   */\n      mstore\n        /* \"#utility.yul\":2893:2900   */\n      0x68616e2030000000000000000000000000000000000000000000000000000000\n        /* \"#utility.yul\":2888:2890   */\n      0x20\n        /* \"#utility.yul\":2880:2886   */\n      dup3\n        /* \"#utility.yul\":2876:2891   */\n      add\n        /* \"#utility.yul\":2869:2901   */\n      mstore\n        /* \"#utility.yul\":2684:2908   */\n      pop\n      jump\t// out\n        /* \"#utility.yul\":2914:3280   */\n    tag_66:\n        /* \"#utility.yul\":3056:3059   */\n      0x00\n        /* \"#utility.yul\":3077:3144   */\n      tag_113\n        /* \"#utility.yul\":3141:3143   */\n      0x25\n        /* \"#utility.yul\":3136:3139   */\n      dup4\n        /* \"#utility.yul\":3077:3144   */\n      tag_64\n      jump\t// in\n    tag_113:\n        /* \"#utility.yul\":3070:3144   */\n      swap2\n      pop\n        /* \"#utility.yul\":3153:3246   */\n      tag_114\n        /* \"#utility.yul\":3242:3245   */\n      dup3\n        /* \"#utility.yul\":3153:3246   */\n      tag_65\n      jump\t// in\n    tag_114:\n        /* \"#utility.yul\":3271:3273   */\n      0x40\n        /* \"#utility.yul\":3266:3269   */\n      dup3\n        /* \"#utility.yul\":3262:3274   */\n      add\n        /* \"#utility.yul\":3255:3274   */\n      swap1\n      pop\n        /* \"#utility.yul\":2914:3280   */\n      swap2\n      swap1\n      pop\n      jump\t// out\n        /* \"#utility.yul\":3286:3705   */\n    tag_22:\n        /* \"#utility.yul\":3452:3456   */\n      0x00\n        /* \"#utility.yul\":3490:3492   */\n      0x20\n        /* \"#utility.yul\":3479:3488   */\n      dup3\n        /* \"#utility.yul\":3475:3493   */\n      add\n        /* \"#utility.yul\":3467:3493   */\n      swap1\n      pop\n        /* \"#utility.yul\":3539:3548   */\n      dup2\n        /* \"#utility.yul\":3533:3537   */\n      dup2\n        /* \"#utility.yul\":3529:3549   */\n      sub\n        /* \"#utility.yul\":3525:3526   */\n      0x00\n        /* \"#utility.yul\":3514:3523   */\n      dup4\n        /* \"#utility.yul\":3510:3527   */\n      add\n        /* \"#utility.yul\":3503:3550   */\n      mstore\n        /* \"#utility.yul\":3567:3698   */\n      tag_116\n        /* \"#utility.yul\":3693:3697   */\n      dup2\n        /* \"#utility.yul\":3567:3698   */\n      tag_66\n      jump\t// in\n    tag_116:\n        /* \"#utility.yul\":3559:3698   */\n      swap1\n      pop\n        /* \"#utility.yul\":3286:3705   */\n      swap2\n      swap1\n      pop\n      jump\t// out\n        /* \"#utility.yul\":3711:3829   */\n    tag_67:\n        /* \"#utility.yul\":3798:3822   */\n      tag_118\n        /* \"#utility.yul\":3816:3821   */\n      dup2\n        /* \"#utility.yul\":3798:3822   */\n      tag_57\n      jump\t// in\n    tag_118:\n        /* \"#utility.yul\":3793:3796   */\n      dup3\n        /* \"#utility.yul\":3786:3823   */\n      mstore\n        /* \"#utility.yul\":3711:3829   */\n      pop\n      pop\n      jump\t// out\n        /* \"#utility.yul\":3835:4277   */\n    tag_24:\n        /* \"#utility.yul\":3984:3988   */\n      0x00\n        /* \"#utility.yul\":4022:4024   */\n      0x60\n        /* \"#utility.yul\":4011:4020   */\n      dup3\n        /* \"#utility.yul\":4007:4025   */\n      add\n        /* \"#utility.yul\":3999:4025   */\n      swap1\n      pop\n        /* \"#utility.yul\":4035:4106   */\n      tag_120\n        /* \"#utility.yul\":4103:4104   */\n      0x00\n        /* \"#utility.yul\":4092:4101   */\n      dup4\n        /* \"#utility.yul\":4088:4105   */\n      add\n        /* \"#utility.yul\":4079:4085   */\n      dup7\n        /* \"#utility.yul\":4035:4106   */\n      tag_67\n      jump\t// in\n    tag_120:\n        /* \"#utility.yul\":4116:4188   */\n      tag_121\n        /* \"#utility.yul\":4184:4186   */\n      0x20\n        /* \"#utility.yul\":4173:4182   */\n      dup4\n        /* \"#utility.yul\":4169:4187   */\n      add\n        /* \"#utility.yul\":4160:4166   */\n      dup6\n        /* \"#utility.yul\":4116:4188   */\n      tag_67\n      jump\t// in\n    tag_121:\n        /* \"#utility.yul\":4198:4270   */\n      tag_122\n        /* \"#utility.yul\":4266:4268   */\n      0x40\n        /* \"#utility.yul\":4255:4264   */\n      dup4\n        /* \"#utility.yul\":4251:4269   */\n      add\n        /* \"#utility.yul\":4242:4248   */\n      dup5\n        /* \"#utility.yul\":4198:4270   */\n      tag_63\n      jump\t// in\n    tag_122:\n        /* \"#utility.yul\":3835:4277   */\n      swap5\n      swap4\n      pop\n      pop\n      pop\n      pop\n      jump\t// out\n        /* \"#utility.yul\":4283:4373   */\n    tag_68:\n        /* \"#utility.yul\":4317:4324   */\n      0x00\n        /* \"#utility.yul\":4360:4365   */\n      dup2\n        /* \"#utility.yul\":4353:4366   */\n      iszero\n        /* \"#utility.yul\":4346:4367   */\n      iszero\n        /* \"#utility.yul\":4335:4367   */\n      swap1\n      pop\n        /* \"#utility.yul\":4283:4373   */\n      swap2\n      swap1\n      pop\n      jump\t// out\n        /* \"#utility.yul\":4379:4495   */\n    tag_69:\n        /* \"#utility.yul\":4449:4470   */\n      tag_125\n        /* \"#utility.yul\":4464:4469   */\n      dup2\n        /* \"#utility.yul\":4449:4470   */\n      tag_68\n      jump\t// in\n    tag_125:\n        /* \"#utility.yul\":4442:4447   */\n      dup2\n        /* \"#utility.yul\":4439:4471   */\n      eq\n        /* \"#utility.yul\":4429:4489   */\n      tag_126\n      jumpi\n        /* \"#utility.yul\":4485:4486   */\n      0x00\n        /* \"#utility.yul\":4482:4483   */\n      dup1\n        /* \"#utility.yul\":4475:4487   */\n      revert\n        /* \"#utility.yul\":4429:4489   */\n    tag_126:\n        /* \"#utility.yul\":4379:4495   */\n      pop\n      jump\t// out\n        /* \"#utility.yul\":4501:4638   */\n    tag_70:\n        /* \"#utility.yul\":4555:4560   */\n      0x00\n        /* \"#utility.yul\":4586:4592   */\n      dup2\n        /* \"#utility.yul\":4580:4593   */\n      mload\n        /* \"#utility.yul\":4571:4593   */\n      swap1\n      pop\n        /* \"#utility.yul\":4602:4632   */\n      tag_128\n        /* \"#utility.yul\":4626:4631   */\n      dup2\n        /* \"#utility.yul\":4602:4632   */\n      tag_69\n      jump\t// in\n    tag_128:\n        /* \"#utility.yul\":4501:4638   */\n      swap3\n      swap2\n      pop\n      pop\n      jump\t// out\n        /* \"#utility.yul\":4644:4989   */\n    tag_28:\n        /* \"#utility.yul\":4711:4717   */\n      0x00\n        /* \"#utility.yul\":4760:4762   */\n      0x20\n        /* \"#utility.yul\":4748:4757   */\n      dup3\n        /* \"#utility.yul\":4739:4746   */\n      dup5\n        /* \"#utility.yul\":4735:4758   */\n      sub\n        /* \"#utility.yul\":4731:4763   */\n      slt\n        /* \"#utility.yul\":4728:4847   */\n      iszero\n      tag_130\n      jumpi\n        /* \"#utility.yul\":4766:4845   */\n      tag_131\n      tag_54\n      jump\t// in\n    tag_131:\n        /* \"#utility.yul\":4728:4847   */\n    tag_130:\n        /* \"#utility.yul\":4886:4887   */\n      0x00\n        /* \"#utility.yul\":4911:4972   */\n      tag_132\n        /* \"#utility.yul\":4964:4971   */\n      dup5\n        /* \"#utility.yul\":4955:4961   */\n      dup3\n        /* \"#utility.yul\":4944:4953   */\n      dup6\n        /* \"#utility.yul\":4940:4962   */\n      add\n        /* \"#utility.yul\":4911:4972   */\n      tag_70\n      jump\t// in\n    tag_132:\n        /* \"#utility.yul\":4901:4972   */\n      swap2\n      pop\n        /* \"#utility.yul\":4857:4982   */\n      pop\n        /* \"#utility.yul\":4644:4989   */\n      swap3\n      swap2\n      pop\n      pop\n      jump\t// out\n        /* \"#utility.yul\":4995:5160   */\n    tag_71:\n        /* \"#utility.yul\":5135:5152   */\n      0x5472616e73666572206661696c65640000000000000000000000000000000000\n        /* \"#utility.yul\":5131:5132   */\n      0x00\n        /* \"#utility.yul\":5123:5129   */\n      dup3\n        /* \"#utility.yul\":5119:5133   */\n      add\n        /* \"#utility.yul\":5112:5153   */\n      mstore\n        /* \"#utility.yul\":4995:5160   */\n      pop\n      jump\t// out\n        /* \"#utility.yul\":5166:5532   */\n    tag_72:\n        /* \"#utility.yul\":5308:5311   */\n      0x00\n        /* \"#utility.yul\":5329:5396   */\n      tag_135\n        /* \"#utility.yul\":5393:5395   */\n      0x0f\n        /* \"#utility.yul\":5388:5391   */\n      dup4\n        /* \"#utility.yul\":5329:5396   */\n      tag_64\n      jump\t// in\n    tag_135:\n        /* \"#utility.yul\":5322:5396   */\n      swap2\n      pop\n        /* \"#utility.yul\":5405:5498   */\n      tag_136\n        /* \"#utility.yul\":5494:5497   */\n      dup3\n        /* \"#utility.yul\":5405:5498   */\n      tag_71\n      jump\t// in\n    tag_136:\n        /* \"#utility.yul\":5523:5525   */\n      0x20\n        /* \"#utility.yul\":5518:5521   */\n      dup3\n        /* \"#utility.yul\":5514:5526   */\n      add\n        /* \"#utility.yul\":5507:5526   */\n      swap1\n      pop\n        /* \"#utility.yul\":5166:5532   */\n      swap2\n      swap1\n      pop\n      jump\t// out\n        /* \"#utility.yul\":5538:5957   */\n    tag_31:\n        /* \"#utility.yul\":5704:5708   */\n      0x00\n        /* \"#utility.yul\":5742:5744   */\n      0x20\n        /* \"#utility.yul\":5731:5740   */\n      dup3\n        /* \"#utility.yul\":5727:5745   */\n      add\n        /* \"#utility.yul\":5719:5745   */\n      swap1\n      pop\n        /* \"#utility.yul\":5791:5800   */\n      dup2\n        /* \"#utility.yul\":5785:5789   */\n      dup2\n        /* \"#utility.yul\":5781:5801   */\n      sub\n        /* \"#utility.yul\":5777:5778   */\n      0x00\n        /* \"#utility.yul\":5766:5775   */\n      dup4\n        /* \"#utility.yul\":5762:5779   */\n      add\n        /* \"#utility.yul\":5755:5802   */\n      mstore\n        /* \"#utility.yul\":5819:5950   */\n      tag_138\n        /* \"#utility.yul\":5945:5949   */\n      dup2\n        /* \"#utility.yul\":5819:5950   */\n      tag_72\n      jump\t// in\n    tag_138:\n        /* \"#utility.yul\":5811:5950   */\n      swap1\n      pop\n        /* \"#utility.yul\":5538:5957   */\n      swap2\n      swap1\n      pop\n      jump\t// out\n        /* \"#utility.yul\":5963:6143   */\n    tag_73:\n        /* \"#utility.yul\":6011:6088   */\n      0x4e487b7100000000000000000000000000000000000000000000000000000000\n        /* \"#utility.yul\":6008:6009   */\n      0x00\n        /* \"#utility.yul\":6001:6089   */\n      mstore\n        /* \"#utility.yul\":6108:6112   */\n      0x11\n        /* \"#utility.yul\":6105:6106   */\n      0x04\n        /* \"#utility.yul\":6098:6113   */\n      mstore\n        /* \"#utility.yul\":6132:6136   */\n      0x24\n        /* \"#utility.yul\":6129:6130   */\n      0x00\n        /* \"#utility.yul\":6122:6137   */\n      revert\n        /* \"#utility.yul\":6149:6340   */\n    tag_33:\n        /* \"#utility.yul\":6189:6192   */\n      0x00\n        /* \"#utility.yul\":6208:6228   */\n      tag_141\n        /* \"#utility.yul\":6226:6227   */\n      dup3\n        /* \"#utility.yul\":6208:6228   */\n      tag_60\n      jump\t// in\n    tag_141:\n        /* \"#utility.yul\":6203:6228   */\n      swap2\n      pop\n        /* \"#utility.yul\":6242:6262   */\n      tag_142\n        /* \"#utility.yul\":6260:6261   */\n      dup4\n        /* \"#utility.yul\":6242:6262   */\n      tag_60\n      jump\t// in\n    tag_142:\n        /* \"#utility.yul\":6237:6262   */\n      swap3\n      pop\n        /* \"#utility.yul\":6285:6286   */\n      dup3\n        /* \"#utility.yul\":6282:6283   */\n      dup3\n        /* \"#utility.yul\":6278:6287   */\n      add\n        /* \"#utility.yul\":6271:6287   */\n      swap1\n      pop\n        /* \"#utility.yul\":6306:6309   */\n      dup1\n        /* \"#utility.yul\":6303:6304   */\n      dup3\n        /* \"#utility.yul\":6300:6310   */\n      gt\n        /* \"#utility.yul\":6297:6333   */\n      iszero\n      tag_143\n      jumpi\n        /* \"#utility.yul\":6313:6331   */\n      tag_144\n      tag_73\n      jump\t// in\n    tag_144:\n        /* \"#utility.yul\":6297:6333   */\n    tag_143:\n        /* \"#utility.yul\":6149:6340   */\n      swap3\n      swap2\n      pop\n      pop\n      jump\t// out\n        /* \"#utility.yul\":6346:6573   */\n    tag_74:\n        /* \"#utility.yul\":6486:6520   */\n      0x5769746864726177616c20616d6f756e74206d75737420626520677265617465\n        /* \"#utility.yul\":6482:6483   */\n      0x00\n        /* \"#utility.yul\":6474:6480   */\n      dup3\n        /* \"#utility.yul\":6470:6484   */\n      add\n        /* \"#utility.yul\":6463:6521   */\n      mstore\n        /* \"#utility.yul\":6555:6565   */\n      0x72207468616e2030000000000000000000000000000000000000000000000000\n        /* \"#utility.yul\":6550:6552   */\n      0x20\n        /* \"#utility.yul\":6542:6548   */\n      dup3\n        /* \"#utility.yul\":6538:6553   */\n      add\n        /* \"#utility.yul\":6531:6566   */\n      mstore\n        /* \"#utility.yul\":6346:6573   */\n      pop\n      jump\t// out\n        /* \"#utility.yul\":6579:6945   */\n    tag_75:\n        /* \"#utility.yul\":6721:6724   */\n      0x00\n        /* \"#utility.yul\":6742:6809   */\n      tag_147\n        /* \"#utility.yul\":6806:6808   */\n      0x28\n        /* \"#utility.yul\":6801:6804   */\n      dup4\n        /* \"#utility.yul\":6742:6809   */\n      tag_64\n      jump\t// in\n    tag_147:\n        /* \"#utility.yul\":6735:6809   */\n      swap2\n      pop\n        /* \"#utility.yul\":6818:6911   */\n      tag_148\n        /* \"#utility.yul\":6907:6910   */\n      dup3\n        /* \"#utility.yul\":6818:6911   */\n      tag_74\n      jump\t// in\n    tag_148:\n        /* \"#utility.yul\":6936:6938   */\n      0x40\n        /* \"#utility.yul\":6931:6934   */\n      dup3\n        /* \"#utility.yul\":6927:6939   */\n      add\n        /* \"#utility.yul\":6920:6939   */\n      swap1\n      pop\n        /* \"#utility.yul\":6579:6945   */\n      swap2\n      swap1\n      pop\n      jump\t// out\n        /* \"#utility.yul\":6951:7370   */\n    tag_39:\n        /* \"#utility.yul\":7117:7121   */\n      0x00\n        /* \"#utility.yul\":7155:7157   */\n      0x20\n        /* \"#utility.yul\":7144:7153   */\n      dup3\n        /* \"#utility.yul\":7140:7158   */\n      add\n        /* \"#utility.yul\":7132:7158   */\n      swap1\n      pop\n        /* \"#utility.yul\":7204:7213   */\n      dup2\n        /* \"#utility.yul\":7198:7202   */\n      dup2\n        /* \"#utility.yul\":7194:7214   */\n      sub\n        /* \"#utility.yul\":7190:7191   */\n      0x00\n        /* \"#utility.yul\":7179:7188   */\n      dup4\n        /* \"#utility.yul\":7175:7192   */\n      add\n        /* \"#utility.yul\":7168:7215   */\n      mstore\n        /* \"#utility.yul\":7232:7363   */\n      tag_150\n        /* \"#utility.yul\":7358:7362   */\n      dup2\n        /* \"#utility.yul\":7232:7363   */\n      tag_75\n      jump\t// in\n    tag_150:\n        /* \"#utility.yul\":7224:7363   */\n      swap1\n      pop\n        /* \"#utility.yul\":6951:7370   */\n      swap2\n      swap1\n      pop\n      jump\t// out\n        /* \"#utility.yul\":7376:7546   */\n    tag_76:\n        /* \"#utility.yul\":7516:7538   */\n      0x496e73756666696369656e742062616c616e6365000000000000000000000000\n        /* \"#utility.yul\":7512:7513   */\n      0x00\n        /* \"#utility.yul\":7504:7510   */\n      dup3\n        /* \"#utility.yul\":7500:7514   */\n      add\n        /* \"#utility.yul\":7493:7539   */\n      mstore\n        /* \"#utility.yul\":7376:7546   */\n      pop\n      jump\t// out\n        /* \"#utility.yul\":7552:7918   */\n    tag_77:\n        /* \"#utility.yul\":7694:7697   */\n      0x00\n        /* \"#utility.yul\":7715:7782   */\n      tag_153\n        /* \"#utility.yul\":7779:7781   */\n      0x14\n        /* \"#utility.yul\":7774:7777   */\n      dup4\n        /* \"#utility.yul\":7715:7782   */\n      tag_64\n      jump\t// in\n    tag_153:\n        /* \"#utility.yul\":7708:7782   */\n      swap2\n      pop\n        /* \"#utility.yul\":7791:7884   */\n      tag_154\n        /* \"#utility.yul\":7880:7883   */\n      dup3\n        /* \"#utility.yul\":7791:7884   */\n      tag_76\n      jump\t// in\n    tag_154:\n        /* \"#utility.yul\":7909:7911   */\n      0x20\n        /* \"#utility.yul\":7904:7907   */\n      dup3\n        /* \"#utility.yul\":7900:7912   */\n      add\n        /* \"#utility.yul\":7893:7912   */\n      swap1\n      pop\n        /* \"#utility.yul\":7552:7918   */\n      swap2\n      swap1\n      pop\n      jump\t// out\n        /* \"#utility.yul\":7924:8343   */\n    tag_42:\n        /* \"#utility.yul\":8090:8094   */\n      0x00\n        /* \"#utility.yul\":8128:8130   */\n      0x20\n        /* \"#utility.yul\":8117:8126   */\n      dup3\n        /* \"#utility.yul\":8113:8131   */\n      add\n        /* \"#utility.yul\":8105:8131   */\n      swap1\n      pop\n        /* \"#utility.yul\":8177:8186   */\n      dup2\n        /* \"#utility.yul\":8171:8175   */\n      dup2\n        /* \"#utility.yul\":8167:8187   */\n      sub\n        /* \"#utility.yul\":8163:8164   */\n      0x00\n        /* \"#utility.yul\":8152:8161   */\n      dup4\n        /* \"#utility.yul\":8148:8165   */\n      add\n        /* \"#utility.yul\":8141:8188   */\n      mstore\n        /* \"#utility.yul\":8205:8336   */\n      tag_156\n        /* \"#utility.yul\":8331:8335   */\n      dup2\n        /* \"#utility.yul\":8205:8336   */\n      tag_77\n      jump\t// in\n    tag_156:\n        /* \"#utility.yul\":8197:8336   */\n      swap1\n      pop\n        /* \"#utility.yul\":7924:8343   */\n      swap2\n      swap1\n      pop\n      jump\t// out\n        /* \"#utility.yul\":8349:8543   */\n    tag_44:\n        /* \"#utility.yul\":8389:8393   */\n      0x00\n        /* \"#utility.yul\":8409:8429   */\n      tag_158\n        /* \"#utility.yul\":8427:8428   */\n      dup3\n        /* \"#utility.yul\":8409:8429   */\n      tag_60\n      jump\t// in\n    tag_158:\n        /* \"#utility.yul\":8404:8429   */\n      swap2\n      pop\n        /* \"#utility.yul\":8443:8463   */\n      tag_159\n        /* \"#utility.yul\":8461:8462   */\n      dup4\n        /* \"#utility.yul\":8443:8463   */\n      tag_60\n      jump\t// in\n    tag_159:\n        /* \"#utility.yul\":8438:8463   */\n      swap3\n      pop\n        /* \"#utility.yul\":8487:8488   */\n      dup3\n        /* \"#utility.yul\":8484:8485   */\n      dup3\n        /* \"#utility.yul\":8480:8489   */\n      sub\n        /* \"#utility.yul\":8472:8489   */\n      swap1\n      pop\n        /* \"#utility.yul\":8511:8512   */\n      dup2\n        /* \"#utility.yul\":8505:8509   */\n      dup2\n        /* \"#utility.yul\":8502:8513   */\n      gt\n        /* \"#utility.yul\":8499:8536   */\n      iszero\n      tag_160\n      jumpi\n        /* \"#utility.yul\":8516:8534   */\n      tag_161\n      tag_73\n      jump\t// in\n    tag_161:\n        /* \"#utility.yul\":8499:8536   */\n    tag_160:\n        /* \"#utility.yul\":8349:8543   */\n      swap3\n      swap2\n      pop\n      pop\n      jump\t// out\n        /* \"#utility.yul\":8549:8881   */\n    tag_46:\n        /* \"#utility.yul\":8670:8674   */\n      0x00\n        /* \"#utility.yul\":8708:8710   */\n      0x40\n        /* \"#utility.yul\":8697:8706   */\n      dup3\n        /* \"#utility.yul\":8693:8711   */\n      add\n        /* \"#utility.yul\":8685:8711   */\n      swap1\n      pop\n        /* \"#utility.yul\":8721:8792   */\n      tag_163\n        /* \"#utility.yul\":8789:8790   */\n      0x00\n        /* \"#utility.yul\":8778:8787   */\n      dup4\n        /* \"#utility.yul\":8774:8791   */\n      add\n        /* \"#utility.yul\":8765:8771   */\n      dup6\n        /* \"#utility.yul\":8721:8792   */\n      tag_67\n      jump\t// in\n    tag_163:\n        /* \"#utility.yul\":8802:8874   */\n      tag_164\n        /* \"#utility.yul\":8870:8872   */\n      0x20\n        /* \"#utility.yul\":8859:8868   */\n      dup4\n        /* \"#utility.yul\":8855:8873   */\n      add\n        /* \"#utility.yul\":8846:8852   */\n      dup5\n        /* \"#utility.yul\":8802:8874   */\n      tag_63\n      jump\t// in\n    tag_164:\n        /* \"#utility.yul\":8549:8881   */\n      swap4\n      swap3\n      pop\n      pop\n      pop\n      jump\t// out\n\n    auxdata: 0xa26469706673582212207bbef6eda3e8db85df7b1e52c8ffd9b2bf767ff690eb9521ac65c49c75e8249164736f6c634300081a0033\n}\n",
				"bytecode": {
					"linkReferences": {},
					"object": "6080604052348015600e575f80fd5b50610a918061001c5f395ff3fe608060405234801561000f575f80fd5b506004361061003f575f3560e01c806347e7ef2414610043578063d4fac45d1461005f578063f3fef3a31461008f575b5f80fd5b61005d6004803603810190610058919061065d565b6100ab565b005b6100796004803603810190610074919061069b565b61029f565b60405161008691906106e8565b60405180910390f35b6100a960048036038101906100a4919061065d565b610320565b005b5f81116100ed576040517f08c379a00000000000000000000000000000000000000000000000000000000081526004016100e490610781565b60405180910390fd5b8173ffffffffffffffffffffffffffffffffffffffff166323b872dd3330846040518463ffffffff1660e01b815260040161012a939291906107ae565b6020604051808303815f875af1158015610146573d5f803e3d5ffd5b505050506040513d601f19601f8201168201806040525081019061016a9190610818565b6101a9576040517f08c379a00000000000000000000000000000000000000000000000000000000081526004016101a09061088d565b60405180910390fd5b805f803373ffffffffffffffffffffffffffffffffffffffff1673ffffffffffffffffffffffffffffffffffffffff1681526020019081526020015f205f8473ffffffffffffffffffffffffffffffffffffffff1673ffffffffffffffffffffffffffffffffffffffff1681526020019081526020015f205f82825461022f91906108d8565b925050819055508173ffffffffffffffffffffffffffffffffffffffff163373ffffffffffffffffffffffffffffffffffffffff167f5548c837ab068cf56a2c2479df0882a4922fd203edb7517321831d95078c5f628360405161029391906106e8565b60405180910390a35050565b5f805f8473ffffffffffffffffffffffffffffffffffffffff1673ffffffffffffffffffffffffffffffffffffffff1681526020019081526020015f205f8373ffffffffffffffffffffffffffffffffffffffff1673ffffffffffffffffffffffffffffffffffffffff1681526020019081526020015f2054905092915050565b5f8111610362576040517f08c379a00000000000000000000000000000000000000000000000000000000081526004016103599061097b565b60405180910390fd5b805f803373ffffffffffffffffffffffffffffffffffffffff1673ffffffffffffffffffffffffffffffffffffffff1681526020019081526020015f205f8473ffffffffffffffffffffffffffffffffffffffff1673ffffffffffffffffffffffffffffffffffffffff1681526020019081526020015f2054101561041c576040517f08c379a0000000000000000000000000000000000000000000000000000000008152600401610413906109e3565b60405180910390fd5b805f803373ffffffffffffffffffffffffffffffffffffffff1673ffffffffffffffffffffffffffffffffffffffff1681526020019081526020015f205f8473ffffffffffffffffffffffffffffffffffffffff1673ffffffffffffffffffffffffffffffffffffffff1681526020019081526020015f205f8282546104a29190610a01565b925050819055508173ffffffffffffffffffffffffffffffffffffffff1663a9059cbb33836040518363ffffffff1660e01b81526004016104e4929190610a34565b6020604051808303815f875af1158015610500573d5f803e3d5ffd5b505050506040513d601f19601f820116820180604052508101906105249190610818565b610563576040517f08c379a000000000000000000000000000000000000000000000000000000000815260040161055a9061088d565b60405180910390fd5b8173ffffffffffffffffffffffffffffffffffffffff163373ffffffffffffffffffffffffffffffffffffffff167f2717ead6b9200dd235aad468c9809ea400fe33ac69b5bfaa6d3e90fc922b6398836040516105c091906106e8565b60405180910390a35050565b5f80fd5b5f73ffffffffffffffffffffffffffffffffffffffff82169050919050565b5f6105f9826105d0565b9050919050565b610609816105ef565b8114610613575f80fd5b50565b5f8135905061062481610600565b92915050565b5f819050919050565b61063c8161062a565b8114610646575f80fd5b50565b5f8135905061065781610633565b92915050565b5f8060408385031215610673576106726105cc565b5b5f61068085828601610616565b925050602061069185828601610649565b9150509250929050565b5f80604083850312156106b1576106b06105cc565b5b5f6106be85828601610616565b92505060206106cf85828601610616565b9150509250929050565b6106e28161062a565b82525050565b5f6020820190506106fb5f8301846106d9565b92915050565b5f82825260208201905092915050565b7f4465706f73697420616d6f756e74206d757374206265206772656174657220745f8201527f68616e2030000000000000000000000000000000000000000000000000000000602082015250565b5f61076b602583610701565b915061077682610711565b604082019050919050565b5f6020820190508181035f8301526107988161075f565b9050919050565b6107a8816105ef565b82525050565b5f6060820190506107c15f83018661079f565b6107ce602083018561079f565b6107db60408301846106d9565b949350505050565b5f8115159050919050565b6107f7816107e3565b8114610801575f80fd5b50565b5f81519050610812816107ee565b92915050565b5f6020828403121561082d5761082c6105cc565b5b5f61083a84828501610804565b91505092915050565b7f5472616e73666572206661696c656400000000000000000000000000000000005f82015250565b5f610877600f83610701565b915061088282610843565b602082019050919050565b5f6020820190508181035f8301526108a48161086b565b9050919050565b7f4e487b71000000000000000000000000000000000000000000000000000000005f52601160045260245ffd5b5f6108e28261062a565b91506108ed8361062a565b9250828201905080821115610905576109046108ab565b5b92915050565b7f5769746864726177616c20616d6f756e74206d757374206265206772656174655f8201527f72207468616e2030000000000000000000000000000000000000000000000000602082015250565b5f610965602883610701565b91506109708261090b565b604082019050919050565b5f6020820190508181035f83015261099281610959565b9050919050565b7f496e73756666696369656e742062616c616e63650000000000000000000000005f82015250565b5f6109cd601483610701565b91506109d882610999565b602082019050919050565b5f6020820190508181035f8301526109fa816109c1565b9050919050565b5f610a0b8261062a565b9150610a168361062a565b9250828203905081811115610a2e57610a2d6108ab565b5b92915050565b5f604082019050610a475f83018561079f565b610a5460208301846106d9565b939250505056fea26469706673582212207bbef6eda3e8db85df7b1e52c8ffd9b2bf767ff690eb9521ac65c49c75e8249164736f6c634300081a0033",
					"opcodes": "PUSH1 0x80 PUSH1 0x40 MSTORE CALLVALUE DUP1 ISZERO PUSH1 0xE JUMPI PUSH0 DUP1 REVERT JUMPDEST POP PUSH2 0xA91 DUP1 PUSH2 0x1C PUSH0 CODECOPY PUSH0 RETURN INVALID PUSH1 0x80 PUSH1 0x40 MSTORE CALLVALUE DUP1 ISZERO PUSH2 0xF JUMPI PUSH0 DUP1 REVERT JUMPDEST POP PUSH1 0x4 CALLDATASIZE LT PUSH2 0x3F JUMPI PUSH0 CALLDATALOAD PUSH1 0xE0 SHR DUP1 PUSH4 0x47E7EF24 EQ PUSH2 0x43 JUMPI DUP1 PUSH4 0xD4FAC45D EQ PUSH2 0x5F JUMPI DUP1 PUSH4 0xF3FEF3A3 EQ PUSH2 0x8F JUMPI JUMPDEST PUSH0 DUP1 REVERT JUMPDEST PUSH2 0x5D PUSH1 0x4 DUP1 CALLDATASIZE SUB DUP2 ADD SWAP1 PUSH2 0x58 SWAP2 SWAP1 PUSH2 0x65D JUMP JUMPDEST PUSH2 0xAB JUMP JUMPDEST STOP JUMPDEST PUSH2 0x79 PUSH1 0x4 DUP1 CALLDATASIZE SUB DUP2 ADD SWAP1 PUSH2 0x74 SWAP2 SWAP1 PUSH2 0x69B JUMP JUMPDEST PUSH2 0x29F JUMP JUMPDEST PUSH1 0x40 MLOAD PUSH2 0x86 SWAP2 SWAP1 PUSH2 0x6E8 JUMP JUMPDEST PUSH1 0x40 MLOAD DUP1 SWAP2 SUB SWAP1 RETURN JUMPDEST PUSH2 0xA9 PUSH1 0x4 DUP1 CALLDATASIZE SUB DUP2 ADD SWAP1 PUSH2 0xA4 SWAP2 SWAP1 PUSH2 0x65D JUMP JUMPDEST PUSH2 0x320 JUMP JUMPDEST STOP JUMPDEST PUSH0 DUP2 GT PUSH2 0xED JUMPI PUSH1 0x40 MLOAD PUSH32 0x8C379A000000000000000000000000000000000000000000000000000000000 DUP2 MSTORE PUSH1 0x4 ADD PUSH2 0xE4 SWAP1 PUSH2 0x781 JUMP JUMPDEST PUSH1 0x40 MLOAD DUP1 SWAP2 SUB SWAP1 REVERT JUMPDEST DUP2 PUSH20 0xFFFFFFFFFFFFFFFFFFFFFFFFFFFFFFFFFFFFFFFF AND PUSH4 0x23B872DD CALLER ADDRESS DUP5 PUSH1 0x40 MLOAD DUP5 PUSH4 0xFFFFFFFF AND PUSH1 0xE0 SHL DUP2 MSTORE PUSH1 0x4 ADD PUSH2 0x12A SWAP4 SWAP3 SWAP2 SWAP1 PUSH2 0x7AE JUMP JUMPDEST PUSH1 0x20 PUSH1 0x40 MLOAD DUP1 DUP4 SUB DUP2 PUSH0 DUP8 GAS CALL ISZERO DUP1 ISZERO PUSH2 0x146 JUMPI RETURNDATASIZE PUSH0 DUP1 RETURNDATACOPY RETURNDATASIZE PUSH0 REVERT JUMPDEST POP POP POP POP PUSH1 0x40 MLOAD RETURNDATASIZE PUSH1 0x1F NOT PUSH1 0x1F DUP3 ADD AND DUP3 ADD DUP1 PUSH1 0x40 MSTORE POP DUP2 ADD SWAP1 PUSH2 0x16A SWAP2 SWAP1 PUSH2 0x818 JUMP JUMPDEST PUSH2 0x1A9 JUMPI PUSH1 0x40 MLOAD PUSH32 0x8C379A000000000000000000000000000000000000000000000000000000000 DUP2 MSTORE PUSH1 0x4 ADD PUSH2 0x1A0 SWAP1 PUSH2 0x88D JUMP JUMPDEST PUSH1 0x40 MLOAD DUP1 SWAP2 SUB SWAP1 REVERT JUMPDEST DUP1 PUSH0 DUP1 CALLER PUSH20 0xFFFFFFFFFFFFFFFFFFFFFFFFFFFFFFFFFFFFFFFF AND PUSH20 0xFFFFFFFFFFFFFFFFFFFFFFFFFFFFFFFFFFFFFFFF AND DUP2 MSTORE PUSH1 0x20 ADD SWAP1 DUP2 MSTORE PUSH1 0x20 ADD PUSH0 KECCAK256 PUSH0 DUP5 PUSH20 0xFFFFFFFFFFFFFFFFFFFFFFFFFFFFFFFFFFFFFFFF AND PUSH20 0xFFFFFFFFFFFFFFFFFFFFFFFFFFFFFFFFFFFFFFFF AND DUP2 MSTORE PUSH1 0x20 ADD SWAP1 DUP2 MSTORE PUSH1 0x20 ADD PUSH0 KECCAK256 PUSH0 DUP3 DUP3 SLOAD PUSH2 0x22F SWAP2 SWAP1 PUSH2 0x8D8 JUMP JUMPDEST SWAP3 POP POP DUP2 SWAP1 SSTORE POP DUP2 PUSH20 0xFFFFFFFFFFFFFFFFFFFFFFFFFFFFFFFFFFFFFFFF AND CALLER PUSH20 0xFFFFFFFFFFFFFFFFFFFFFFFFFFFFFFFFFFFFFFFF AND PUSH32 0x5548C837AB068CF56A2C2479DF0882A4922FD203EDB7517321831D95078C5F62 DUP4 PUSH1 0x40 MLOAD PUSH2 0x293 SWAP2 SWAP1 PUSH2 0x6E8 JUMP JUMPDEST PUSH1 0x40 MLOAD DUP1 SWAP2 SUB SWAP1 LOG3 POP POP JUMP JUMPDEST PUSH0 DUP1 PUSH0 DUP5 PUSH20 0xFFFFFFFFFFFFFFFFFFFFFFFFFFFFFFFFFFFFFFFF AND PUSH20 0xFFFFFFFFFFFFFFFFFFFFFFFFFFFFFFFFFFFFFFFF AND DUP2 MSTORE PUSH1 0x20 ADD SWAP1 DUP2 MSTORE PUSH1 0x20 ADD PUSH0 KECCAK256 PUSH0 DUP4 PUSH20 0xFFFFFFFFFFFFFFFFFFFFFFFFFFFFFFFFFFFFFFFF AND PUSH20 0xFFFFFFFFFFFFFFFFFFFFFFFFFFFFFFFFFFFFFFFF AND DUP2 MSTORE PUSH1 0x20 ADD SWAP1 DUP2 MSTORE PUSH1 0x20 ADD PUSH0 KECCAK256 SLOAD SWAP1 POP SWAP3 SWAP2 POP POP JUMP JUMPDEST PUSH0 DUP2 GT PUSH2 0x362 JUMPI PUSH1 0x40 MLOAD PUSH32 0x8C379A000000000000000000000000000000000000000000000000000000000 DUP2 MSTORE PUSH1 0x4 ADD PUSH2 0x359 SWAP1 PUSH2 0x97B JUMP JUMPDEST PUSH1 0x40 MLOAD DUP1 SWAP2 SUB SWAP1 REVERT JUMPDEST DUP1 PUSH0 DUP1 CALLER PUSH20 0xFFFFFFFFFFFFFFFFFFFFFFFFFFFFFFFFFFFFFFFF AND PUSH20 0xFFFFFFFFFFFFFFFFFFFFFFFFFFFFFFFFFFFFFFFF AND DUP2 MSTORE PUSH1 0x20 ADD SWAP1 DUP2 MSTORE PUSH1 0x20 ADD PUSH0 KECCAK256 PUSH0 DUP5 PUSH20 0xFFFFFFFFFFFFFFFFFFFFFFFFFFFFFFFFFFFFFFFF AND PUSH20 0xFFFFFFFFFFFFFFFFFFFFFFFFFFFFFFFFFFFFFFFF AND DUP2 MSTORE PUSH1 0x20 ADD SWAP1 DUP2 MSTORE PUSH1 0x20 ADD PUSH0 KECCAK256 SLOAD LT ISZERO PUSH2 0x41C JUMPI PUSH1 0x40 MLOAD PUSH32 0x8C379A000000000000000000000000000000000000000000000000000000000 DUP2 MSTORE PUSH1 0x4 ADD PUSH2 0x413 SWAP1 PUSH2 0x9E3 JUMP JUMPDEST PUSH1 0x40 MLOAD DUP1 SWAP2 SUB SWAP1 REVERT JUMPDEST DUP1 PUSH0 DUP1 CALLER PUSH20 0xFFFFFFFFFFFFFFFFFFFFFFFFFFFFFFFFFFFFFFFF AND PUSH20 0xFFFFFFFFFFFFFFFFFFFFFFFFFFFFFFFFFFFFFFFF AND DUP2 MSTORE PUSH1 0x20 ADD SWAP1 DUP2 MSTORE PUSH1 0x20 ADD PUSH0 KECCAK256 PUSH0 DUP5 PUSH20 0xFFFFFFFFFFFFFFFFFFFFFFFFFFFFFFFFFFFFFFFF AND PUSH20 0xFFFFFFFFFFFFFFFFFFFFFFFFFFFFFFFFFFFFFFFF AND DUP2 MSTORE PUSH1 0x20 ADD SWAP1 DUP2 MSTORE PUSH1 0x20 ADD PUSH0 KECCAK256 PUSH0 DUP3 DUP3 SLOAD PUSH2 0x4A2 SWAP2 SWAP1 PUSH2 0xA01 JUMP JUMPDEST SWAP3 POP POP DUP2 SWAP1 SSTORE POP DUP2 PUSH20 0xFFFFFFFFFFFFFFFFFFFFFFFFFFFFFFFFFFFFFFFF AND PUSH4 0xA9059CBB CALLER DUP4 PUSH1 0x40 MLOAD DUP4 PUSH4 0xFFFFFFFF AND PUSH1 0xE0 SHL DUP2 MSTORE PUSH1 0x4 ADD PUSH2 0x4E4 SWAP3 SWAP2 SWAP1 PUSH2 0xA34 JUMP JUMPDEST PUSH1 0x20 PUSH1 0x40 MLOAD DUP1 DUP4 SUB DUP2 PUSH0 DUP8 GAS CALL ISZERO DUP1 ISZERO PUSH2 0x500 JUMPI RETURNDATASIZE PUSH0 DUP1 RETURNDATACOPY RETURNDATASIZE PUSH0 REVERT JUMPDEST POP POP POP POP PUSH1 0x40 MLOAD RETURNDATASIZE PUSH1 0x1F NOT PUSH1 0x1F DUP3 ADD AND DUP3 ADD DUP1 PUSH1 0x40 MSTORE POP DUP2 ADD SWAP1 PUSH2 0x524 SWAP2 SWAP1 PUSH2 0x818 JUMP JUMPDEST PUSH2 0x563 JUMPI PUSH1 0x40 MLOAD PUSH32 0x8C379A000000000000000000000000000000000000000000000000000000000 DUP2 MSTORE PUSH1 0x4 ADD PUSH2 0x55A SWAP1 PUSH2 0x88D JUMP JUMPDEST PUSH1 0x40 MLOAD DUP1 SWAP2 SUB SWAP1 REVERT JUMPDEST DUP2 PUSH20 0xFFFFFFFFFFFFFFFFFFFFFFFFFFFFFFFFFFFFFFFF AND CALLER PUSH20 0xFFFFFFFFFFFFFFFFFFFFFFFFFFFFFFFFFFFFFFFF AND PUSH32 0x2717EAD6B9200DD235AAD468C9809EA400FE33AC69B5BFAA6D3E90FC922B6398 DUP4 PUSH1 0x40 MLOAD PUSH2 0x5C0 SWAP2 SWAP1 PUSH2 0x6E8 JUMP JUMPDEST PUSH1 0x40 MLOAD DUP1 SWAP2 SUB SWAP1 LOG3 POP POP JUMP JUMPDEST PUSH0 DUP1 REVERT JUMPDEST PUSH0 PUSH20 0xFFFFFFFFFFFFFFFFFFFFFFFFFFFFFFFFFFFFFFFF DUP3 AND SWAP1 POP SWAP2 SWAP1 POP JUMP JUMPDEST PUSH0 PUSH2 0x5F9 DUP3 PUSH2 0x5D0 JUMP JUMPDEST SWAP1 POP SWAP2 SWAP1 POP JUMP JUMPDEST PUSH2 0x609 DUP2 PUSH2 0x5EF JUMP JUMPDEST DUP2 EQ PUSH2 0x613 JUMPI PUSH0 DUP1 REVERT JUMPDEST POP JUMP JUMPDEST PUSH0 DUP2 CALLDATALOAD SWAP1 POP PUSH2 0x624 DUP2 PUSH2 0x600 JUMP JUMPDEST SWAP3 SWAP2 POP POP JUMP JUMPDEST PUSH0 DUP2 SWAP1 POP SWAP2 SWAP1 POP JUMP JUMPDEST PUSH2 0x63C DUP2 PUSH2 0x62A JUMP JUMPDEST DUP2 EQ PUSH2 0x646 JUMPI PUSH0 DUP1 REVERT JUMPDEST POP JUMP JUMPDEST PUSH0 DUP2 CALLDATALOAD SWAP1 POP PUSH2 0x657 DUP2 PUSH2 0x633 JUMP JUMPDEST SWAP3 SWAP2 POP POP JUMP JUMPDEST PUSH0 DUP1 PUSH1 0x40 DUP4 DUP6 SUB SLT ISZERO PUSH2 0x673 JUMPI PUSH2 0x672 PUSH2 0x5CC JUMP JUMPDEST JUMPDEST PUSH0 PUSH2 0x680 DUP6 DUP3 DUP7 ADD PUSH2 0x616 JUMP JUMPDEST SWAP3 POP POP PUSH1 0x20 PUSH2 0x691 DUP6 DUP3 DUP7 ADD PUSH2 0x649 JUMP JUMPDEST SWAP2 POP POP SWAP3 POP SWAP3 SWAP1 POP JUMP JUMPDEST PUSH0 DUP1 PUSH1 0x40 DUP4 DUP6 SUB SLT ISZERO PUSH2 0x6B1 JUMPI PUSH2 0x6B0 PUSH2 0x5CC JUMP JUMPDEST JUMPDEST PUSH0 PUSH2 0x6BE DUP6 DUP3 DUP7 ADD PUSH2 0x616 JUMP JUMPDEST SWAP3 POP POP PUSH1 0x20 PUSH2 0x6CF DUP6 DUP3 DUP7 ADD PUSH2 0x616 JUMP JUMPDEST SWAP2 POP POP SWAP3 POP SWAP3 SWAP1 POP JUMP JUMPDEST PUSH2 0x6E2 DUP2 PUSH2 0x62A JUMP JUMPDEST DUP3 MSTORE POP POP JUMP JUMPDEST PUSH0 PUSH1 0x20 DUP3 ADD SWAP1 POP PUSH2 0x6FB PUSH0 DUP4 ADD DUP5 PUSH2 0x6D9 JUMP JUMPDEST SWAP3 SWAP2 POP POP JUMP JUMPDEST PUSH0 DUP3 DUP3 MSTORE PUSH1 0x20 DUP3 ADD SWAP1 POP SWAP3 SWAP2 POP POP JUMP JUMPDEST PUSH32 0x4465706F73697420616D6F756E74206D75737420626520677265617465722074 PUSH0 DUP3 ADD MSTORE PUSH32 0x68616E2030000000000000000000000000000000000000000000000000000000 PUSH1 0x20 DUP3 ADD MSTORE POP JUMP JUMPDEST PUSH0 PUSH2 0x76B PUSH1 0x25 DUP4 PUSH2 0x701 JUMP JUMPDEST SWAP2 POP PUSH2 0x776 DUP3 PUSH2 0x711 JUMP JUMPDEST PUSH1 0x40 DUP3 ADD SWAP1 POP SWAP2 SWAP1 POP JUMP JUMPDEST PUSH0 PUSH1 0x20 DUP3 ADD SWAP1 POP DUP2 DUP2 SUB PUSH0 DUP4 ADD MSTORE PUSH2 0x798 DUP2 PUSH2 0x75F JUMP JUMPDEST SWAP1 POP SWAP2 SWAP1 POP JUMP JUMPDEST PUSH2 0x7A8 DUP2 PUSH2 0x5EF JUMP JUMPDEST DUP3 MSTORE POP POP JUMP JUMPDEST PUSH0 PUSH1 0x60 DUP3 ADD SWAP1 POP PUSH2 0x7C1 PUSH0 DUP4 ADD DUP7 PUSH2 0x79F JUMP JUMPDEST PUSH2 0x7CE PUSH1 0x20 DUP4 ADD DUP6 PUSH2 0x79F JUMP JUMPDEST PUSH2 0x7DB PUSH1 0x40 DUP4 ADD DUP5 PUSH2 0x6D9 JUMP JUMPDEST SWAP5 SWAP4 POP POP POP POP JUMP JUMPDEST PUSH0 DUP2 ISZERO ISZERO SWAP1 POP SWAP2 SWAP1 POP JUMP JUMPDEST PUSH2 0x7F7 DUP2 PUSH2 0x7E3 JUMP JUMPDEST DUP2 EQ PUSH2 0x801 JUMPI PUSH0 DUP1 REVERT JUMPDEST POP JUMP JUMPDEST PUSH0 DUP2 MLOAD SWAP1 POP PUSH2 0x812 DUP2 PUSH2 0x7EE JUMP JUMPDEST SWAP3 SWAP2 POP POP JUMP JUMPDEST PUSH0 PUSH1 0x20 DUP3 DUP5 SUB SLT ISZERO PUSH2 0x82D JUMPI PUSH2 0x82C PUSH2 0x5CC JUMP JUMPDEST JUMPDEST PUSH0 PUSH2 0x83A DUP5 DUP3 DUP6 ADD PUSH2 0x804 JUMP JUMPDEST SWAP2 POP POP SWAP3 SWAP2 POP POP JUMP JUMPDEST PUSH32 0x5472616E73666572206661696C65640000000000000000000000000000000000 PUSH0 DUP3 ADD MSTORE POP JUMP JUMPDEST PUSH0 PUSH2 0x877 PUSH1 0xF DUP4 PUSH2 0x701 JUMP JUMPDEST SWAP2 POP PUSH2 0x882 DUP3 PUSH2 0x843 JUMP JUMPDEST PUSH1 0x20 DUP3 ADD SWAP1 POP SWAP2 SWAP1 POP JUMP JUMPDEST PUSH0 PUSH1 0x20 DUP3 ADD SWAP1 POP DUP2 DUP2 SUB PUSH0 DUP4 ADD MSTORE PUSH2 0x8A4 DUP2 PUSH2 0x86B JUMP JUMPDEST SWAP1 POP SWAP2 SWAP1 POP JUMP JUMPDEST PUSH32 0x4E487B7100000000000000000000000000000000000000000000000000000000 PUSH0 MSTORE PUSH1 0x11 PUSH1 0x4 MSTORE PUSH1 0x24 PUSH0 REVERT JUMPDEST PUSH0 PUSH2 0x8E2 DUP3 PUSH2 0x62A JUMP JUMPDEST SWAP2 POP PUSH2 0x8ED DUP4 PUSH2 0x62A JUMP JUMPDEST SWAP3 POP DUP3 DUP3 ADD SWAP1 POP DUP1 DUP3 GT ISZERO PUSH2 0x905 JUMPI PUSH2 0x904 PUSH2 0x8AB JUMP JUMPDEST JUMPDEST SWAP3 SWAP2 POP POP JUMP JUMPDEST PUSH32 0x5769746864726177616C20616D6F756E74206D75737420626520677265617465 PUSH0 DUP3 ADD MSTORE PUSH32 0x72207468616E2030000000000000000000000000000000000000000000000000 PUSH1 0x20 DUP3 ADD MSTORE POP JUMP JUMPDEST PUSH0 PUSH2 0x965 PUSH1 0x28 DUP4 PUSH2 0x701 JUMP JUMPDEST SWAP2 POP PUSH2 0x970 DUP3 PUSH2 0x90B JUMP JUMPDEST PUSH1 0x40 DUP3 ADD SWAP1 POP SWAP2 SWAP1 POP JUMP JUMPDEST PUSH0 PUSH1 0x20 DUP3 ADD SWAP1 POP DUP2 DUP2 SUB PUSH0 DUP4 ADD MSTORE PUSH2 0x992 DUP2 PUSH2 0x959 JUMP JUMPDEST SWAP1 POP SWAP2 SWAP1 POP JUMP JUMPDEST PUSH32 0x496E73756666696369656E742062616C616E6365000000000000000000000000 PUSH0 DUP3 ADD MSTORE POP JUMP JUMPDEST PUSH0 PUSH2 0x9CD PUSH1 0x14 DUP4 PUSH2 0x701 JUMP JUMPDEST SWAP2 POP PUSH2 0x9D8 DUP3 PUSH2 0x999 JUMP JUMPDEST PUSH1 0x20 DUP3 ADD SWAP1 POP SWAP2 SWAP1 POP JUMP JUMPDEST PUSH0 PUSH1 0x20 DUP3 ADD SWAP1 POP DUP2 DUP2 SUB PUSH0 DUP4 ADD MSTORE PUSH2 0x9FA DUP2 PUSH2 0x9C1 JUMP JUMPDEST SWAP1 POP SWAP2 SWAP1 POP JUMP JUMPDEST PUSH0 PUSH2 0xA0B DUP3 PUSH2 0x62A JUMP JUMPDEST SWAP2 POP PUSH2 0xA16 DUP4 PUSH2 0x62A JUMP JUMPDEST SWAP3 POP DUP3 DUP3 SUB SWAP1 POP DUP2 DUP2 GT ISZERO PUSH2 0xA2E JUMPI PUSH2 0xA2D PUSH2 0x8AB JUMP JUMPDEST JUMPDEST SWAP3 SWAP2 POP POP JUMP JUMPDEST PUSH0 PUSH1 0x40 DUP3 ADD SWAP1 POP PUSH2 0xA47 PUSH0 DUP4 ADD DUP6 PUSH2 0x79F JUMP JUMPDEST PUSH2 0xA54 PUSH1 0x20 DUP4 ADD DUP5 PUSH2 0x6D9 JUMP JUMPDEST SWAP4 SWAP3 POP POP POP JUMP INVALID LOG2 PUSH5 0x6970667358 0x22 SLT KECCAK256 PUSH28 0xBEF6EDA3E8DB85DF7B1E52C8FFD9B2BF767FF690EB9521AC65C49C75 0xE8 0x24 SWAP2 PUSH5 0x736F6C6343 STOP ADDMOD BYTE STOP CALLER "
				},
				"gasEstimates": {
					"creation": {
						"codeDepositCost": "541000",
						"executionCost": "573",
						"totalCost": "541573"
					},
					"external": {
						"deposit(address,uint256)": "infinite",
						"getBalance(address,address)": "infinite",
						"withdraw(address,uint256)": "infinite"
					}
				},
				"methodIdentifiers": {
					"deposit(address,uint256)": "47e7ef24",
					"getBalance(address,address)": "d4fac45d",
					"withdraw(address,uint256)": "f3fef3a3"
				}
			},
			"storageLayout": {
				"storage": [
					{
						"astId": 28,
						"contract": "piggybank/piggybank.sol:PiggyBank",
						"label": "_balances",
						"offset": 0,
						"slot": "0",
						"type": "t_mapping(t_address,t_mapping(t_address,t_uint256))"
					}
				],
				"types": {
					"t_address": {
						"encoding": "inplace",
						"label": "address",
						"numberOfBytes": "20"
					},
					"t_mapping(t_address,t_mapping(t_address,t_uint256))": {
						"encoding": "mapping",
						"key": "t_address",
						"label": "mapping(address => mapping(address => uint256))",
						"numberOfBytes": "32",
						"value": "t_mapping(t_address,t_uint256)"
					},
					"t_mapping(t_address,t_uint256)": {
						"encoding": "mapping",
						"key": "t_address",
						"label": "mapping(address => uint256)",
						"numberOfBytes": "32",
						"value": "t_uint256"
					},
					"t_uint256": {
						"encoding": "inplace",
						"label": "uint256",
						"numberOfBytes": "32"
					}
				}
			},
			"userdoc": {
				"kind": "user",
				"methods": {},
				"version": 1
			}
		}
	}
}